{
  "contracts/Router.sol": {
    "Router": {
      "abi": [
        {
          "inputs": [
            {
              "internalType": "address",
              "name": "tokenA",
              "type": "address"
            },
            {
              "internalType": "address",
              "name": "tokenB",
              "type": "address"
            },
            {
              "internalType": "uint256",
              "name": "amountADesired",
              "type": "uint256"
            },
            {
              "internalType": "uint256",
              "name": "amountBDesired",
              "type": "uint256"
            },
            {
              "internalType": "uint256",
              "name": "amountAMin",
              "type": "uint256"
            },
            {
              "internalType": "uint256",
              "name": "amountBMin",
              "type": "uint256"
            },
            {
              "internalType": "address",
              "name": "to",
              "type": "address"
            },
            {
              "internalType": "uint256",
              "name": "deadline",
              "type": "uint256"
            }
          ],
          "name": "addLiquidity",
          "outputs": [
            {
              "internalType": "uint256",
              "name": "amountA",
              "type": "uint256"
            },
            {
              "internalType": "uint256",
              "name": "amountB",
              "type": "uint256"
            },
            {
              "internalType": "uint256",
              "name": "liquidity",
              "type": "uint256"
            }
          ],
          "stateMutability": "nonpayable",
          "type": "function"
        }
      ],
      "evm": {
        "bytecode": {
          "linkReferences": {},
          "object": "608060405234801561001057600080fd5b50610237806100206000396000f3fe608060405234801561001057600080fd5b506004361061002b5760003560e01c8063e8e3370014610030575b600080fd5b61004a6004803603810190610045919061009f565b610062565b60405161005993929190610160565b60405180910390f35b6000806000985098509895505050505050565b600081359050610084816101d3565b92915050565b600081359050610099816101ea565b92915050565b600080600080600080600080610100898b0312156100bc57600080fd5b60006100ca8b828c01610075565b98505060206100db8b828c01610075565b97505060406100ec8b828c0161008a565b96505060606100fd8b828c0161008a565b955050608061010e8b828c0161008a565b94505060a061011f8b828c0161008a565b93505060c06101308b828c01610075565b92505060e06101418b828c0161008a565b9150509295985092959890939650565b61015a816101c9565b82525050565b60006060820190506101756000830186610151565b6101826020830185610151565b61018f6040830184610151565b949350505050565b60006101a2826101a9565b9050919050565b600073ffffffffffffffffffffffffffffffffffffffff82169050919050565b6000819050919050565b6101dc81610197565b81146101e757600080fd5b50565b6101f3816101c9565b81146101fe57600080fd5b5056fea2646970667358221220165757367b5c6793b63d21980f0f252cf2e8e7d3a60f73b4a7d394e251324f8364736f6c63430008000033",
          "opcodes": "PUSH1 0x80 PUSH1 0x40 MSTORE CALLVALUE DUP1 ISZERO PUSH2 0x10 JUMPI PUSH1 0x0 DUP1 REVERT JUMPDEST POP PUSH2 0x237 DUP1 PUSH2 0x20 PUSH1 0x0 CODECOPY PUSH1 0x0 RETURN INVALID PUSH1 0x80 PUSH1 0x40 MSTORE CALLVALUE DUP1 ISZERO PUSH2 0x10 JUMPI PUSH1 0x0 DUP1 REVERT JUMPDEST POP PUSH1 0x4 CALLDATASIZE LT PUSH2 0x2B JUMPI PUSH1 0x0 CALLDATALOAD PUSH1 0xE0 SHR DUP1 PUSH4 0xE8E33700 EQ PUSH2 0x30 JUMPI JUMPDEST PUSH1 0x0 DUP1 REVERT JUMPDEST PUSH2 0x4A PUSH1 0x4 DUP1 CALLDATASIZE SUB DUP2 ADD SWAP1 PUSH2 0x45 SWAP2 SWAP1 PUSH2 0x9F JUMP JUMPDEST PUSH2 0x62 JUMP JUMPDEST PUSH1 0x40 MLOAD PUSH2 0x59 SWAP4 SWAP3 SWAP2 SWAP1 PUSH2 0x160 JUMP JUMPDEST PUSH1 0x40 MLOAD DUP1 SWAP2 SUB SWAP1 RETURN JUMPDEST PUSH1 0x0 DUP1 PUSH1 0x0 SWAP9 POP SWAP9 POP SWAP9 SWAP6 POP POP POP POP POP POP JUMP JUMPDEST PUSH1 0x0 DUP2 CALLDATALOAD SWAP1 POP PUSH2 0x84 DUP2 PUSH2 0x1D3 JUMP JUMPDEST SWAP3 SWAP2 POP POP JUMP JUMPDEST PUSH1 0x0 DUP2 CALLDATALOAD SWAP1 POP PUSH2 0x99 DUP2 PUSH2 0x1EA JUMP JUMPDEST SWAP3 SWAP2 POP POP JUMP JUMPDEST PUSH1 0x0 DUP1 PUSH1 0x0 DUP1 PUSH1 0x0 DUP1 PUSH1 0x0 DUP1 PUSH2 0x100 DUP10 DUP12 SUB SLT ISZERO PUSH2 0xBC JUMPI PUSH1 0x0 DUP1 REVERT JUMPDEST PUSH1 0x0 PUSH2 0xCA DUP12 DUP3 DUP13 ADD PUSH2 0x75 JUMP JUMPDEST SWAP9 POP POP PUSH1 0x20 PUSH2 0xDB DUP12 DUP3 DUP13 ADD PUSH2 0x75 JUMP JUMPDEST SWAP8 POP POP PUSH1 0x40 PUSH2 0xEC DUP12 DUP3 DUP13 ADD PUSH2 0x8A JUMP JUMPDEST SWAP7 POP POP PUSH1 0x60 PUSH2 0xFD DUP12 DUP3 DUP13 ADD PUSH2 0x8A JUMP JUMPDEST SWAP6 POP POP PUSH1 0x80 PUSH2 0x10E DUP12 DUP3 DUP13 ADD PUSH2 0x8A JUMP JUMPDEST SWAP5 POP POP PUSH1 0xA0 PUSH2 0x11F DUP12 DUP3 DUP13 ADD PUSH2 0x8A JUMP JUMPDEST SWAP4 POP POP PUSH1 0xC0 PUSH2 0x130 DUP12 DUP3 DUP13 ADD PUSH2 0x75 JUMP JUMPDEST SWAP3 POP POP PUSH1 0xE0 PUSH2 0x141 DUP12 DUP3 DUP13 ADD PUSH2 0x8A JUMP JUMPDEST SWAP2 POP POP SWAP3 SWAP6 SWAP9 POP SWAP3 SWAP6 SWAP9 SWAP1 SWAP4 SWAP7 POP JUMP JUMPDEST PUSH2 0x15A DUP2 PUSH2 0x1C9 JUMP JUMPDEST DUP3 MSTORE POP POP JUMP JUMPDEST PUSH1 0x0 PUSH1 0x60 DUP3 ADD SWAP1 POP PUSH2 0x175 PUSH1 0x0 DUP4 ADD DUP7 PUSH2 0x151 JUMP JUMPDEST PUSH2 0x182 PUSH1 0x20 DUP4 ADD DUP6 PUSH2 0x151 JUMP JUMPDEST PUSH2 0x18F PUSH1 0x40 DUP4 ADD DUP5 PUSH2 0x151 JUMP JUMPDEST SWAP5 SWAP4 POP POP POP POP JUMP JUMPDEST PUSH1 0x0 PUSH2 0x1A2 DUP3 PUSH2 0x1A9 JUMP JUMPDEST SWAP1 POP SWAP2 SWAP1 POP JUMP JUMPDEST PUSH1 0x0 PUSH20 0xFFFFFFFFFFFFFFFFFFFFFFFFFFFFFFFFFFFFFFFF DUP3 AND SWAP1 POP SWAP2 SWAP1 POP JUMP JUMPDEST PUSH1 0x0 DUP2 SWAP1 POP SWAP2 SWAP1 POP JUMP JUMPDEST PUSH2 0x1DC DUP2 PUSH2 0x197 JUMP JUMPDEST DUP2 EQ PUSH2 0x1E7 JUMPI PUSH1 0x0 DUP1 REVERT JUMPDEST POP JUMP JUMPDEST PUSH2 0x1F3 DUP2 PUSH2 0x1C9 JUMP JUMPDEST DUP2 EQ PUSH2 0x1FE JUMPI PUSH1 0x0 DUP1 REVERT JUMPDEST POP JUMP INVALID LOG2 PUSH5 0x6970667358 0x22 SLT KECCAK256 AND JUMPI JUMPI CALLDATASIZE PUSH28 0x5C6793B63D21980F0F252CF2E8E7D3A60F73B4A7D394E251324F8364 PUSH20 0x6F6C634300080000330000000000000000000000 "
        },
        "methodIdentifiers": {
          "addLiquidity(address,address,uint256,uint256,uint256,uint256,address,uint256)": "e8e33700"
        }
      }
    }
  }
}